{
  "_format": "hh-sol-artifact-1",
  "contractName": "Betting",
  "sourceName": "contracts/Betting.sol",
  "abi": [
    {
      "inputs": [],
      "stateMutability": "nonpayable",
      "type": "constructor"
    },
    {
      "inputs": [
        {
          "internalType": "bytes32",
          "name": "_teamSelected",
          "type": "bytes32"
        }
      ],
      "name": "bet",
      "outputs": [],
      "stateMutability": "payable",
      "type": "function"
    },
    {
      "inputs": [
        {
          "internalType": "address",
          "name": "",
          "type": "address"
        },
        {
          "internalType": "uint256",
          "name": "",
          "type": "uint256"
        }
      ],
      "name": "betResults",
      "outputs": [
        {
          "internalType": "bytes32",
          "name": "",
          "type": "bytes32"
        }
      ],
      "stateMutability": "view",
      "type": "function"
    },
    {
      "inputs": [
        {
          "internalType": "address",
          "name": "",
          "type": "address"
        }
      ],
      "name": "openBets",
      "outputs": [
        {
          "internalType": "bytes32",
          "name": "",
          "type": "bytes32"
        }
      ],
      "stateMutability": "view",
      "type": "function"
    },
    {
      "inputs": [],
      "name": "owner",
      "outputs": [
        {
          "internalType": "address payable",
          "name": "",
          "type": "address"
        }
      ],
      "stateMutability": "view",
      "type": "function"
    },
    {
      "inputs": [],
      "name": "payWinners",
      "outputs": [],
      "stateMutability": "nonpayable",
      "type": "function"
    },
    {
      "inputs": [
        {
          "internalType": "uint256",
          "name": "",
          "type": "uint256"
        }
      ],
      "name": "players",
      "outputs": [
        {
          "internalType": "address payable",
          "name": "",
          "type": "address"
        }
      ],
      "stateMutability": "view",
      "type": "function"
    },
    {
      "inputs": [
        {
          "internalType": "address payable",
          "name": "_bettorAddress",
          "type": "address"
        }
      ],
      "name": "validBet",
      "outputs": [
        {
          "internalType": "bool",
          "name": "",
          "type": "bool"
        }
      ],
      "stateMutability": "view",
      "type": "function"
    },
    {
      "stateMutability": "payable",
      "type": "receive"
    }
  ],
  "bytecode": "0x608060405260006002556000600355600260045534801561001f57600080fd5b50336000806101000a81548173ffffffffffffffffffffffffffffffffffffffff021916908373ffffffffffffffffffffffffffffffffffffffff160217905550610b2b8061006f6000396000f3fe6080604052600436106100745760003560e01c8063798d4f5a1161004e578063798d4f5a146101345780638da5cb5b14610199578063c30f1af8146101f0578063f71d96cb146102595761007b565b80631010743014610080578063177413da146100ef5780635337448e1461011d5761007b565b3661007b57005b600080fd5b34801561008c57600080fd5b506100d9600480360360408110156100a357600080fd5b81019080803573ffffffffffffffffffffffffffffffffffffffff169060200190929190803590602001909291905050506102d4565b6040518082815260200191505060405180910390f35b61011b6004803603602081101561010557600080fd5b8101908080359060200190929190505050610302565b005b34801561012957600080fd5b5061013261042c565b005b34801561014057600080fd5b506101836004803603602081101561015757600080fd5b81019080803573ffffffffffffffffffffffffffffffffffffffff16906020019092919050505061086d565b6040518082815260200191505060405180910390f35b3480156101a557600080fd5b506101ae610885565b604051808273ffffffffffffffffffffffffffffffffffffffff1673ffffffffffffffffffffffffffffffffffffffff16815260200191505060405180910390f35b3480156101fc57600080fd5b5061023f6004803603602081101561021357600080fd5b81019080803573ffffffffffffffffffffffffffffffffffffffff1690602001909291905050506108aa565b604051808215151515815260200191505060405180910390f35b34801561026557600080fd5b506102926004803603602081101561027c57600080fd5b810190808035906020019092919050505061094c565b604051808273ffffffffffffffffffffffffffffffffffffffff1673ffffffffffffffffffffffffffffffffffffffff16815260200191505060405180910390f35b600660205281600052604060002081815481106102ed57fe5b90600052602060002001600091509150505481565b61030b336108aa565b61031457600080fd5b80600560003373ffffffffffffffffffffffffffffffffffffffff1673ffffffffffffffffffffffffffffffffffffffff16815260200190815260200160002050506001339080600181540180825580915050600190039060005260206000200160009091909190916101000a81548173ffffffffffffffffffffffffffffffffffffffff021916908373ffffffffffffffffffffffffffffffffffffffff1602179055506000809054906101000a900473ffffffffffffffffffffffffffffffffffffffff1673ffffffffffffffffffffffffffffffffffffffff166108fc670de0b6b3a76400009081150290604051600060405180830381858888f19350505050158015610428573d6000803e3d6000fd5b5050565b6000809054906101000a900473ffffffffffffffffffffffffffffffffffffffff1673ffffffffffffffffffffffffffffffffffffffff163373ffffffffffffffffffffffffffffffffffffffff161461048557600080fd5b60008090505b60018054905081101561085c5760036000815480929190600101919050555060006004544233600354604051602001808481526020018373ffffffffffffffffffffffffffffffffffffffff1673ffffffffffffffffffffffffffffffffffffffff1660601b815260140182815260200193505050506040516020818303038152906040528051906020012060001c8161052157fe5b06905060008111156106e75761056b6040518060400160405280600881526020017f596f7520576f6e21000000000000000000000000000000000000000000000000815250610988565b3373ffffffffffffffffffffffffffffffffffffffff166108fc671bc16d674ec800009081150290604051600060405180830381858888f193505050501580156105b9573d6000803e3d6000fd5b50600660003373ffffffffffffffffffffffffffffffffffffffff1673ffffffffffffffffffffffffffffffffffffffff16815260200190815260200160002080600181540180825580915050600190039060005260206000200160007f57696e6e65720000000000000000000000000000000000000000000000000000909190915055600660003373ffffffffffffffffffffffffffffffffffffffff1673ffffffffffffffffffffffffffffffffffffffff168152602001908152602001600020600560003373ffffffffffffffffffffffffffffffffffffffff1673ffffffffffffffffffffffffffffffffffffffff16815260200190815260200160002054908060018154018082558091505060019003906000526020600020016000909190919091505561084e565b6107256040518060400160405280601181526020017f536f72727920796f75206c6f7374203a28000000000000000000000000000000815250610988565b600660003373ffffffffffffffffffffffffffffffffffffffff1673ffffffffffffffffffffffffffffffffffffffff16815260200190815260200160002080600181540180825580915050600190039060005260206000200160007f4c6f736572000000000000000000000000000000000000000000000000000000909190915055600660003373ffffffffffffffffffffffffffffffffffffffff1673ffffffffffffffffffffffffffffffffffffffff168152602001908152602001600020600560003373ffffffffffffffffffffffffffffffffffffffff1673ffffffffffffffffffffffffffffffffffffffff1681526020019081526020016000205490806001815401808255809150506001900390600052602060002001600090919091909150555b50808060010191505061048b565b506001600061086b9190610aaf565b565b60056020528060005260406000206000915090505481565b6000809054906101000a900473ffffffffffffffffffffffffffffffffffffffff1681565b600080600090505b600180549050811015610941578273ffffffffffffffffffffffffffffffffffffffff16600182815481106108e357fe5b9060005260206000200160009054906101000a900473ffffffffffffffffffffffffffffffffffffffff1673ffffffffffffffffffffffffffffffffffffffff161415610934576000915050610947565b80806001019150506108b2565b50600190505b919050565b6001818154811061095957fe5b906000526020600020016000915054906101000a900473ffffffffffffffffffffffffffffffffffffffff1681565b610a83816040516024018080602001828103825283818151815260200191508051906020019080838360005b838110156109cf5780820151818401526020810190506109b4565b50505050905090810190601f1680156109fc5780820380516001836020036101000a031916815260200191505b50925050506040516020818303038152906040527f41304fac000000000000000000000000000000000000000000000000000000007bffffffffffffffffffffffffffffffffffffffffffffffffffffffff19166020820180517bffffffffffffffffffffffffffffffffffffffffffffffffffffffff8381831617835250505050610a86565b50565b60008151905060006a636f6e736f6c652e6c6f679050602083016000808483855afa5050505050565b5080546000825590600052602060002090810190610acd9190610ad0565b50565b610af291905b80821115610aee576000816000905550600101610ad6565b5090565b9056fea2646970667358221220d7baf626df9d42f92efe4b08bae9e904b6ef0d48f49675aa4b5015aa2ca4933964736f6c63430006000033",
  "linkReferences": {},
  "deployedLinkReferences": {}
}